:020000040800F2
:10000000A8DE0120A1020008B1C300084D8C000841
:1000100069C30008F10F0008654E010800000000E8
:10002000000000000000000000000000371401087C
:100030007B1A000800000000E90A0008A91801085E
:10004000DB020008DB020008DB020008DB0200081C
:10005000DB020008DB020008DB020008DB0200080C
:10006000DB020008DB020008DB020008DB020008FC
:10007000DB020008DB020008DB020008DB020008EC
:10008000DB020008DB020008DB020008DB020008DC
:10009000DB020008DB020008DB020008DB020008CC
:1000A000DB020008DB020008DB020008DB020008BC
:1000B000DB020008C13E0108CD3E0108DB0200085A
:1000C000DB020008DB020008DB020008DB0200089C
:1000D000DB0200081D4E0108414E0108DB0200084A
:1000E000DB020008DB020008DB020008DB0200087C
:1000F000DB020008DB020008DB020008DB0200086C
:10010000DB020008DB020008DB020008DB0200085B
:10011000DB020008DB020008DB020008DB0200084B
:10012000DB020008DB020008DB020008DB0200083B
:10013000DB020008DB020008DB020008DB0200082B
:10014000DB020008DB020008DB020008DB0200081B
:10015000DB020008DB020008DB020008DB0200080B
:10016000DB020008DB020008DB020008DB020008FB
:10017000DB020008DB020008DB02000800000000D0
:10018000DB020008DB020008DB020008DB020008DB
:10019000DB020008DB020008DB020008DB020008CB
:1001A000C9B20008DB020008DB02000800F002F818
:1001B00000F067F80AA090E8000C82448344AAF19A
:1001C0000107DA4501D100F05CF8AFF2090EBAE898
:1001D0000F0013F0010F18BFFB1A43F0010318477B
:1001E000E4C5020004C602000A444FF0000C10F8F7
:1001F000013B13F0070408BF10F8014B1D1108BFA5
:1002000010F8015B641E05D010F8016B641E01F844
:10021000016BF9D113F0080F1EBF10F8014BAD1C94
:100220000C1B09D16D1E58BF01F801CBFAD505E0B2
:1002300014F8016B01F8016B6D1EF9D59142D6D30C
:10024000704700000023002400250026103A28BF34
:1002500078C1FBD8520728BF30C148BF0B60704738
:10026000642900F0EB80782900F02481732900F0E4
:100270002C83002070471FB522F043FD1FBD10B531
:1002800010BD00F0A5FB1146FFF7F5FF21F02EFB96
:1002900000F0C3FB03B4FFF7F2FF03BC21F0B8F892
:1002A00011488047DFF84400016841F470010160A3
:1002B000BFF34F8FDFF83800016821F04041016043
:1002C000BFF36F8F0B480047FEE7FEE7FEE7FEE750
:1002D000FEE7FEE7FEE7FEE7FEE7FEE70648074922
:1002E000074A084B70470000CD18010888ED00E070
:1002F00034EF00E0AD010008A8D20120A8DE012003
:10030000A8D40120A8D4012072B6704762B6704705
:10031000EFF3108072B6704780F31088704730BFDB
:10032000704720BF7047B0FA80F0704790FAA0F095
:10033000B0FA80F0704790FAA0F070477047000064
:100340000FB4044910B503AA029800F0C3FA10BC18
:100350005DF814FBEC0000200FB41CB5074B06AA97
:100360007B4469460090059800F085FA00206946B4
:1003700000F094FA1CBC5DF814FB00003905000085
:100380002DE9F0410E460446002020622046E16837
:10039000884730B3252805D0D4E901219047206A49
:1003A000401CF2E7E168204600278847050018D086
:1003B000A5F14100192802D820354FF400673246D4
:1003C000294620462760FFF74BFF40B1012804D0A3
:1003D000F61D26F007060836D8E7361DD6E728466C
:1003E000DAE7206ABDE8F08170B50C460546012ABF
:1003F00005D02878800600D5EA69002302E00123B1
:1004000005E05B1C934202D2E05C0028F9D1A869A8
:10041000E618C01AA861286A184428622846AFF373
:10042000008004E0D5E9012114F8010B9047B442A3
:10043000F8D32846AFF3008070BD00002DE9F041ED
:100440000646002410687529314616A510D0AFF372
:100450000080002802DA404213A507E031688A07CD
:1004600001D512A502E0490704D511A5012401E038
:10047000AFF3008000210A2206F1240709E0B0FB57
:10048000F2FCB0FBF2F302FB1C003030785418464B
:10049000491C0028F3D123462A463046BDE8F041E6
:1004A00000F08BB9000000002D0000002B000000C0
:1004B0002000000070B504460D4621461068AFF3D9
:1004C00000802188090502D50F4A7A4402E00E4ACD
:1004D0007A440E32002104F1240305E000F00F06F7
:1004E0000009965D5E54491C0028F7D1207800234E
:1004F000000704D5702D02D009B102231132204625
:10050000BDE8704000F059B9A2C0020010B5431C0C
:1005100002E010F8011B71B18107FAD14FF00132EE
:1005200002C88C1A8C4314EAC211F9D0C01A0A0608
:1005300003D0C01E10BDC01A10BD0A0401D0801E19
:1005400010BD0902FCD0401E10BD032A40F23080CD
:1005500010F0030C00F0158011F8013BBCF1020F04
:10056000624498BF11F801CB00F8013B38BF11F885
:10057000013BA2F1040298BF00F801CB38BF00F89C
:10058000013B11F0030300F06780083AC0F00880D7
:1005900051F8043B083A51F804CBA0E80810F5E7FD
:1005A000121D5CBF51F8043B40F8043BAFF30080E0
:1005B000D20724BF11F8013B11F801CB48BF11F855
:1005C000012B24BF00F8013B00F801CB48BF00F825
:1005D000012B7047431A28BF9A427FF6B6AF032A11
:1005E0001044114440F2268010F0030F1EBF11F892
:1005F000013D521E00F8013D10F0030F7FF4F6AFED
:1006000011F0030300F08B81083AC0F00B8051F821
:10061000043D083A51F804CD40F8043D40F804CDBB
:10062000FFF7F3BF121D5CBF51F8043D40F8043DD5
:10063000AFF30080D20724BF11F8013D11F801CDBE
:1006400048BF11F8012C24BF00F8013D00F801CD8E
:1006500048BF00F8012C704710B5203AC0F00B805D
:10066000B1E81850203AA0E81850B1E81850A0E8B6
:100670001850BFF4F5AF5FEA027C24BFB1E8185010
:10068000A0E8185044BF18C918C0BDE810405FEA80
:10069000827C24BF51F8043B40F8043B08BF7047FC
:1006A000D20728BF31F8023B48BF11F8012B28BF01
:1006B00020F8023B48BF00F8012B704702F0FF030F
:1006C00043EA032242EA024200F055B94FF0000229
:1006D00000B5134694469646203922BFA0E80C5038
:1006E000A0E80C50B1F12001BFF4F7AF090728BF13
:1006F000A0E80C5048BF0CC05DF804EB890028BF8F
:1007000040F8042B08BF704748BF20F8022B11F0B7
:10071000804F18BF00F8012B704700004FF0013CDC
:1007200050F8042B51F8043B9A4221D1A2EB0C0360
:10073000934313EACC1317D150F8042B51F8043B20
:100740009A4215D1A2EB0C03934313EACC130BD1BD
:1007500050F8042B51F8043B9A4209D1A2EB0C0348
:10076000934313EACC13DBD04FF00000704700BF77
:10077000D01A01BAB1FA81F101F0180122FA01F0A0
:10078000CB40C1F12001DBB2C0B2C01A2CFA01F398
:10079000D11A914311EAC311E6D1704770477047EF
:1007A0007047704710B500F007F9006810BD10B52C
:1007B000044600F001F9046010BD2DE9F0470D4634
:1007C00099469246044600F124080168880604D53B
:1007D000E06921F01001216000E00120A84201DD64
:1007E000471B00E00027A1697A1902EB0900081AEB
:1007F000A0612078C00602D42046AFF30080002616
:1008000008E0D4E901211AF806009047206A401C4C
:10081000761C20624E45F4DB2078C0060AD52046BF
:10082000AFF3008006E0D4E9012130209047206A30
:10083000401C2062381EA7F10107F4DC07E0D4E970
:10084000012118F805009047206A401C2062281EEC
:10085000A5F10105F3DC2046AFF300802078000607
:1008600002D50220BDE8F0870120FBE701694A1CA0
:1008700002610878704700B58FB0CDE901310021E1
:10088000059105497944CDE9031011466846FFF703
:1008900077FD0FB000BD0000E5FFFFFF0A6802F81A
:1008A000010B0A60704710B5436913B1AFF30080C4
:1008B00001E0FFF799FD012010BD127800F124013D
:1008C0000A7000224A700122EDE711684FF0FF32F2
:1008D000E9E70000074B70B50D467B44FFF7CBFFFF
:1008E0000446284600F06CF810B14FF0FF3070BDA0
:1008F000204670BDEF0F0200431A28BF9A427FF6D0
:10090000ABAE104410F0030F11441EBF11F8013DAF
:10091000521E00F8013D10F0030F7FF4F6AF103ABD
:10092000C0F00A8010B531E91850103A20E918508B
:10093000BFF4F9AFBDE81040530724BF31E90810F8
:1009400020E9081044BF51F8043D40F8043D12F07E
:10095000030F08BF7047D20728BF31F8023D48BFD8
:1009600011F8012C28BF20F8023D48BF00F8012CE7
:1009700070474FF000020429C0F0128010F0030C01
:100980003FF4A6AECCF1040CBCF1020F18BF00F886
:10099000012BA8BF20F8022BA1EB0C01FFF798BE9A
:1009A0005FEAC17C24BF00F8012B00F8012B48BF8F
:1009B00000F8012B704700000048704744D2012026
:1009C000007B00F0800070470048704744D201204F
:1009D0007546FFF7F9FFAE4605006946534620F01D
:1009E0000700854618B020B5FFF778FCBDE8204029
:1009F0004FF000064FF000074FF000084FF0000BDB
:100A000021F00701AC46ACE8C009ACE8C009ACE88D
:100A1000C009ACE8C0098D46704710B50446AFF375
:100A200000802046BDE81040FFF734BCEFF3098199
:100A300041B1F1EE101A40F8041D20ED200A3E49A4
:100A40000A6810607047B0EC200A02C8E1EE101A84
:100A50003A490A681060704772B64EF62250CEF2DC
:100A6000000040F2FF01C0F2000101704FF00000F1
:100A700080F309880CF0FAFD40F20420C2F2000075
:100A8000016881F3088840F28E10C2F2000040F243
:100A90008F11C2F200010A78027040F2FC15C2F216
:100AA000000540F20021C2F200010A682A601068C5
:100AB00080F30988EFF3148040F0020080F314887B
:100AC000BFF36F8FBDE8F00F0FBCBDE8005006BC50
:100AD00062B608471A484FF08051016070471848C5
:100AE0004FF080510160704772B6EFF3098020E942
:100AF000F00F40F2FC15C2F200052E68306074461B
:100B00000CF0B4FD40F28E10C2F2000040F28F11E2
:100B1000C2F200010A78027040F20021C2F2000124
:100B20000A682A6044F0F40E1068B0E8F00F80F311
:100B3000098862B670470000FC0100200002002016
:100B400004ED00E04A4910B5D1F8042322F4403204
:100B5000C1F80423D1F8042343681A43C1F80423DD
:100B600001684A6822F480724A6001684A68036931
:100B700042EA03224A6001684A6822F040724A60F1
:100B800001684A6883681A434A6001688A6822F4E7
:100B900000628A6001688A68C3681A438A60C16A11
:100BA0006FF07062D14201688A6822F070628A60D8
:100BB00001688A680CD0C36A1A438A6001688A682F
:100BC00022F040528A6001688A68036B1A4301E090
:100BD00022F040528A6001688A6822F002028A602C
:100BE00001688A68836942EA43028A60416A00298F
:100BF00001684A6815D042F400624A6001684A6898
:100C000022F460424A6001684B684FF46044826A93
:100C100094FAA4F4B4FA84F4521EA24013434B6035
:100C200002E022F400624A600168CA6A22F470029B
:100C3000CA620168CA6A038C0E4C04EB03531A4360
:100C4000CA6201688A6822F400728A6001688A6850
:100C5000C36942EA43228A6001688A6822F480629A
:100C60008A6001688A68406942EA8020886010BD15
:100C7000002001400000F0FF08F026B82DE9F04107
:100C80000D460146002004464E1908E00702301BBD
:100C9000401E80B200F007F8641C3844E4B2AC4255
:100CA000F4D3BDE8F08110B5044608F0B5F8200A89
:100CB000A02101EB4000C0B208F07EF808F0EEF889
:100CC000E0B208F079F808F0E9F808F0A5F8A120FA
:100CD00008F072F808F0E2F8002008F039F804464D
:100CE00008F0BAF8204610BD2DE9F04116460D4631
:100CF0000746002409E0E00025FA00F0C1B23819E7
:100D000080B200F006F8641CE4B2B442F3D3BDE84C
:100D1000F08170B50D46044608F07EF8200AA02147
:100D200001EB4000C0B208F047F808F0B7F8E0B2B5
:100D300008F042F808F0B2F8284608F03DF808F04C
:100D4000ADF808F089F8BDE870400A2020F0B2BB89
:100D5000002800DC40427047F0B5044680688B49AB
:100D600089B051F82050606800287DD0052804D053
:100D700006287AD0122879D1AEE0E86900284FD051
:100D800095E80E008DE80F0004F110010FC905F081
:100D90004BFC002655F8260004F0AFFCA169E86979
:100DA0000A1A216901446069304403F0A7FBA16974
:100DB000E8690A1A21690144E069801B03F09EFB7F
:100DC000E169E8690A1A616901442069304403F065
:100DD0007DFCE169E8690A1A61690144A069801B28
:100DE00003F074FC761C022ED4DBA86804F085FCAA
:100DF000E069E9696669431A206942183144801C38
:100E0000521E03F007FDE169E869A2690B1A6169E6
:100E10000144101A401C921E03F0FCFCEE6913E022
:100E20005FF0000655F8260004F067FCE069831BBC
:100E3000A069821B606981192069304403F0D4FBEA
:100E4000761C022EEEDB0226D5E90301CDE9000176
:100E50006169E06908444310A069891C821B20690C
:100E6000304403F00FFB02E089E012E08AE0D5E9AC
:100E70000501CDE90001E36960690121184401EB36
:100E80006001A0699B1E821B2069304403F0FAFABE
:100E900078E0206802F0A0FD0490206815F027F8A3
:100EA00040B1A06808B1002008E00498006F28B1A4
:100EB000012003E00498406F00B10220049901EB87
:100EC0008000C56E04A802F0C5FD00231A4628461E
:100ED000216802F0CDFF55E0206802F07DFD04900E
:100EE000866EEEB3B0F95C70A168D1B3032942D02D
:100EF0005FF0000100EB8101406D0C6C04F01AFC06
:100F0000204604F0FAFB05A803F0F6FCBDF8141027
:100F1000A88B0144ADF81410BDF81810081AADF8EC
:100F20001800BDF81600801CADF81600BDF81A00B8
:100F3000801EADF81A000498B0F96020B0F95E1078
:100F400005A804F0E5FA04A802F084FD022004F0EC
:100F500027FD304602F040FD3A4605A9079001E022
:100F60000BE006E003F0FAF80DF11C0002F072FD50
:100F700008E00121BEE70221BCE704A8F6E72068EB
:100F800014F0FAFC09B00020F0BD0000E4AB020848
:100F9000044A0349116004494A6A4862104670478E
:100FA00084030020B0090020BC0900200D4810B5C2
:100FB000016886B041F0010101600068012400F081
:100FC0000100059041F20100CDE900040320CDE9C4
:100FD00002406946044806F0C3F80448C0F8B0422D
:100FE00006B010BD30380240000002400000404210
:100FF000FEE700002DE9FF470446006810B114F039
:1010000076FF68B10022314850F8221060680A2843
:1010100041D007DCF0B306280DD0072854D106E0F4
:101020000122F0E712280AD019284DD137E02046D6
:1010300016F09CF848E0204618F02CF944E02068AF
:1010400002F0CAFC0290B0F9548090F85650476CF8
:10105000466B02A802F0FEFC206800F039F88146D9
:10106000684614F091F9BDF8001009EB050008443A
:10107000ADF80000246A304604F05CFB022004F066
:101080008FFC384604F039FB42466946204603F09F
:1010900065F819E007E0204619F026FB14E088699E
:1010A00004B0BDE8F087206814F066FC206802F008
:1010B00093FC0390B0F90610B0F90220891A491C7C
:1010C000C16703A802F0C6FC0020E9E7F4AB020800
:1010D00038B5044603F0F2FC204602F07DFC009097
:1010E000C46F684602F0B6FC04F062FE204638BDCC
:1010F000044A034911600449CA69C861104670472F
:1011000010040020EC090020F009002000B589B08F
:1011100024216846FFF7DAFA192001900348006895
:10112000806841686846884709B000BDEC09002026
:101130007CB5214C0546216831F8220F4A8D1044B8
:1011400008804888CA8D10444880284603F0AEFBCA
:101150002168498CADF800104618284605F030FC8F
:101160003044401EADF8040003F00EFC2168898C69
:10117000ADF802100844401EADF80600684614F0B1
:101180006BFD04E0284601F09FFA14F027FD0028CB
:10119000F8D10A2D04D0BDF804002168401C488411
:1011A000206830F8221F428D891A01804188C28D43
:1011B000891A41807CBD0000BC020020054910B5A1
:1011C0000020486000F0A6F800F006F8BDE81040E6
:1011D00000F086B8140100202DE9F041104F0026E0
:1011E00035463E807E80BE60FE607E61BE613E61AF
:1011F000FFF78EF8804600247E6100F049F800F089
:1012000057F87869641C24040544240CF4D0C7E919
:1012100004564046BE61BDE8F041FFF77DB80000CE
:101220001401002003490969884201D9401A704716
:10123000002070471401002010B5FFF769F8044939
:101240004C69FFF769F82046BDE81040FFF7EABF98
:101250001401002010B5FFF7EFFF0446FFF758F820
:10126000034A00215161FFF757F8204610BD0000E6
:101270001401002010B5FFF74BF804498C69FFF703
:101280004BF82046BDE81040FFF7CCBF140100200A
:1012900010B5064C2088401C2080608810B900F0F2
:1012A00051F8A0606088401C608010BD14010020CF
:1012B00010B50A4C6088401E0004000C60800CD100
:1012C00000F040F8E060A168401A6169814200D2F4
:1012D0006061A169814200D2A06110BD14010020AB
:1012E00010B5FFF715F80446FFF7D2FF10210548A7
:1012F0000BF03BF8FFF7DCFF2046BDE81040FFF79E
:101300000BB80000C0F2002001494860704700009F
:101310001401002010B506F065FE08490A6842F085
:1013200080720A60064900224A600A6842F001029F
:101330000A60BDE81040FFF7E7BF0000FCED00E0E9
:10134000001000E00148406870470000001000E015
:1013500070B50E4C0025C4F898520D48016821F074
:10136000C0010160016841F0400101600948C0F816
:101370008C52022004F5267420F0C4F8012020606D
:10138000022020F0BFF8256070BD000000804342BD
:101390000020024000004442154810B5016886B0A4
:1013A00041F080010160016801F080010591016850
:1013B00041F4807101600068012400F480700590A0
:1013C0004020CDE900040320CDE9024069460948E8
:1013D00005F0C6FE082000906946074805F0C0FEEB
:1013E0000648C0F88C420648C0F8984206B010BDC6
:1013F00030380240001C02400020024000004442FD
:101400000080434270B50E4C0026C4F898620D4827
:10141000016821F0C0010160016841F040010160F4
:1014200009480125C0F88C52022004F5267420F0EA
:1014300069F82560022020F065F8266070BD000084
:101440000080434200200240000044422DE9F04762
:10145000824619480024016821F0C001016001683A
:1014600001601E2020F04EF80025144EDFF8509049
:101470002F464FF00108C6F89872022020F042F87B
:10148000C6F898826006040ED9F80C0208B1641CF4
:10149000E4B2022020F036F86D1CEDB2082DEAD33C
:1014A000BAF1000F04D0FFF753FF2046BDE8F087E4
:1014B000FFF7A8FFF9E70000002002400080434248
:1014C000000044422DE9F04705461648016821F026
:1014D000C0010160016841F040010160124E002727
:1014E000C6F89872022020F00DF8DFF84080002442
:1014F0004FF00109E909C8F88C126806050E0220B0
:1015000020F000F8C6F8989202201FF0FBFFC6F802
:10151000987202201FF0F6FF641CE4B2082CE9D395
:10152000BDE8F087002002400080434200004442B2
:1015300070B50F48016821F0C0010160016841F0F9
:10154000400101600B4E0120C6F88C020A4DC5F81F
:1015500098021E2005F5267506F523761FF0D2FFAA
:101560000024346002201FF0CDFF2C6070BD00000D
:1015700000200240000044420080434270B50F4802
:10158000016821F0C0010160016841F04001016083
:101590000B4E0020C6F898020A4DC5F88C021E209A
:1015A00005F5237506F526761FF0ACFF012434609F
:1015B00002201FF0A7FF2C6070BD00000020024039
:1015C000008043420000444270B511480024016885
:1015D00021F0C0010160016801600E4D0120C5F8D5
:1015E0008C020D4EC6F8980207E0641CE4B2FA2C97
:1015F00003D9FFF7C3FF012070BD02201FF082FF57
:10160000D5F80C020028F0D1C6F8980270BD000091
:10161000002002400000444200804342FEB51546CF
:101620000C46064605F0C2FB0B4FC6EBC60257F848
:10163000223000FB043100FB053007EB820400235D
:101640002269CDE90023029302463046E36800F0A8
:1016500027F9A560FEBD0000FC0F01202DE9FE4F1B
:101660009846DDE90C9416460F460546DDF838A08D
:1016700005F09CFB02461149C5EBC50051F820C09E
:1016800001EB80004168C36802FB01C106FB0377E0
:101690004669406807FB061102FB00C709FB03808F
:1016A00000FB0672181B0026CDF800A0CDE901064C
:1016B0002346284600F0F4F8BDE8FE8FFC0F012019
:1016C0002DE9F0471D46DDE9086A14460F468046BD
:1016D00003F024F9012831D0ED1B361B40466D1C68
:1016E000761C05F063FB0146214BC8EBC80053F89C
:1016F000202003EB8000836801FB0322C16840695E
:1017000004FB017303FB00274046A1EB0509D0460B
:10171000002408F019FC1849164A0A60C1F83880FC
:10172000CF63C1F84090486365F31F464E64086874
:1017300040F0010008604FF4001214E0002219216B
:10174000404608F0BFFF33462A462146384608F097
:10175000D5F94046BDE8F047084A192108F0B2BF64
:10176000641C944202D20868C007F9D1BDE8F08732
:10177000FC0F01200002030000B00240C116000867
:1017800038B50324009400F057F838BD38B5042468
:10179000009400F051F838BD38B50024009400F0F2
:1017A0004BF838BD38B50024009400F045F838BD3A
:1017B00070B515460E461C461A460A4907F0B0FB9E
:1017C00022460949304607F0ABFB2346074A064943
:1017D000044800F00DF822462946BDE87040034851
:1017E00007F09EBB1850012018900120181001200E
:1017F00070B5104D0E4E00242E60E8606961EA63FA
:101800002C61AC612C64EC616C626C63012000EBB8
:1018100003406864286840F0010028604FF400111C
:1018200002E0641C8C4202D22868C007F9D170BD66
:101830000002020000B00240F8B50E461446064908
:10184000069D07F074FB2B460022314602480094A7
:1018500000F004F8F8BD000018100120F0B50F4D9D
:101860004FF48137059E00242F60E860E9632C6106
:101870002C64EA616B63012000EB06406864286811
:1018800040F0010028604FF4001102E0641C8C421B
:1018900002D22868C007F9D1F0BD000000B00240B4
:1018A0002DE9F0470F4608A91D4691E800071646A6
:1018B000002408F049FB0E494FF400720A60CF6023
:1018C000CE63C1F81090C1F840A0C861404665F3EE
:1018D0001F404864086840F001000860120302E0FD
:1018E000641C944202D20868C007F9D1BDE8F087B1
:1018F00000B0024038B514460D46049A002305494D
:101900000094FFF7ABFF22462946BDE83840014866
:1019100007F00DBB181001201EB50023FF24B4EB07
:10192000116F2CD080F07F40009081F07F400190BB
:10193000144813490160C0F80CD001A9416102A903
:10194000C1634FF4803141EA0261C161C2F1FF011C
:1019500009064162002141634FF0011141640168B1
:1019600041F0010101604FF4001202E05B1C934260
:1019700002D20168C907F9D1029880F07F401EBDEC
:101980000002020000B00240F8B50546006802F00F
:1019900023F80090448ED0F88860684602F05AF828
:1019A00006B1012604F00104286814F0A0FA0EB173
:1019B000002006E00CB1012003E008B1022000E0A5
:1019C00003201B4951F82010686858B302280CD036
:1019D000052802D0122828D103E0284615F0F2FB92
:1019E00023E0284619F01AFB1FE06A69E8694FF006
:1019F000FF33801AA0F1080203EB6204421CAB69BA
:101A0000001B4510A3EB6206C86903F076FE06E0F2
:101A10003219311B284602F071FD641E6D1C002C2A
:101A2000F6DA02E0286813F0A7FF0020F8BD0000F6
:101A3000FCAB0208044A0349116004490A6B0863BD
:101A4000104670475C0400202C0A0020300A002059
:101A500038B50D46002401F0BFFF0090C06B294649
:101A600002F028F80546684601F0F4FF1DB128464B
:101A700001F0B2FF0446204638BD70472DE9FC5FF7
:101A800015460746DFF8908028440190D8F80020DA
:101A90001C460E46526E2144894652689047D8F83B
:101AA0000020781B4946526E824652689047711951
:101AB00038190090D8F800208946526E5268904735
:101AC000D8F80020711B8B46526E009852689047E0
:101AD000002C1ED0D8F80010361B4546496E0198E0
:101AE0004A68314690472A6831465046526E5268DD
:101AF000904728683C1B4946406E42682046904704
:101B00002A6859462046526E526802B0BDE8F05F1E
:101B10001047BDE8FC9F0000BC020020F8B5154648
:101B20000C46060013D002F0C9FF304601F054FF06
:101B3000009038B1022C05D200EB84004567304696
:101B400013F0CCFD684601F085FF04F031F9F8BDD3
:101B5000F8B515460C46060013D002F0AFFF30462C
:101B600001F03AFF009038B1022C05D200EB84005E
:101B7000C566304613F0B2FD684601F06BFF04F015
:101B800017F9F8BD70B5B3F5804F05D06FF070410F
:101B900040F82210002070BD50F82230084C23403D
:101BA000D1E9004544EA05148D688E892D0245EA85
:101BB000064589692C430C431C4340F82240E9E761
:101BC0000000F0CFF0B50C6850F82450194A1540C9
:101BD000D1E90123D1E903671A433E4332434E69F9
:101BE00032438E693243CE6932430E6A32434E6AC3
:101BF00032438E6A3243CE6A3243CE6B32430E6B2F
:101C000032434E6B32432A43082B01D142F040024B
:101C100040F824204A6BB2F5801F08D10A6832B11F
:101C20004FF480720A610449026811430160002088
:101C3000F0BD00008000E0FF00011000F0B500EBF7
:101C4000820253688E8903F04044D1E9003543EAAB
:101C500005138D682D0245EA06452B430E8A0D4D6E
:101C600005EB065633430E7D6F0107EB06663343E3
:101C70008E693343234353600268D20207D542681A
:101C8000098A22F4700205EB0151114341600020E2
:101C9000F0BD00000000F0FF30B5D1E901231A4388
:101CA000D1E9033423431A434B690D681A438B6906
:101CB0001A43D1E90734012D496A05686FF30E050F
:101CC00005D01A4322430A432A43026008E0234313
:101CD00029430B43416803606FF30E010A434260DE
:101CE000002030BD426942EA410141610020704755
:101CF000F8B514460546D1E9000210438A686FF032
:101D00001F03C96803EB421242EA412108430090D5
:101D1000286105F019FB064609E0601C07D024B1D4
:101D200005F012FB801BA04201D90320F8BDA86971
:101D30008006F2D40020F8BDF0B56FF00F05D1E9B0
:101D4000003405EB04145B1E2E0123438C682F0323
:101D500006EB04244FEA054C23430D8A8E8ACC6897
:101D6000097E4FF07F4E07EB05450CEB06560EEB58
:101D70000161012A0CD082683F1107EB0434234330
:101D80002B43334302F070420B43134383600FE055
:101D9000C2682B430B4302F070428168134301F089
:101DA00070422103A1F5805131431143C36081602A
:101DB0000020F0BD2DE9F041044694B0006800F029
:101DC000B7F908B1D94D01E0D84D2C356068152818
:101DD0001ED00CDC0B281FD004DC00287ED0052888
:101DE0007DD12FE10E287BD01228F9D141E11628B0
:101DF00006D0172808D0182808D01C28F0D109E0F0
:101E0000E86914B0BDE8F081286AFAE7686AF8E783
:101E1000A86AF6E76869F4E720680B901C200C902C
:101E2000206801F0D9FD0390016D0BA88847064694
:101E300003A801F00FFE022E0FDB95E807008DE8E6
:101E40000700D4E904023346A16904F0B3FB20691A
:101E50008719A069A0EB06082CE0286803F04DFC68
:101E60002169E8690A18521E606902F047FBA269FD
:101E7000E869111A491C606902F040FBD4E90407C3
:101E80007F1C394602F08AFB3946A06902F086FBC6
:101E9000686803F032FC20693946401C02F07EFB82
:101EA000A0693946401E02F079FBA0692769A0F1BC
:101EB0000208BF1C286803F020FC424639466069CE
:101EC00002F01CFB686803F018FC60694246394662
:101ED000401C02F013FB686A022802E015E1B0E042
:101EE00000E10BDDA86803F008FC61696A6A881CE0
:101EF0008B180146424638465B1E27E0296AB142EC
:101F000026DD6069022E074600F1020801DB374436
:101F100001E007F10207206901DB304401E000F134
:101F2000020022693B460A444146A2F1010202F046
:101F300071FC022E02DBA069821B01E0A269921EE5
:101F4000A069E9693B46401A4146401C02F062FC28
:101F5000022E02DB6069064401E06669B61CE7698F
:101F600028687F1E03F0C9FB3A463146206902F01B
:101F7000ADFB3A463146A06902F0A8FBE769686804
:101F8000BF1E03F0BAFB20693A463146401C02F0FE
:101F90009DFBA0693A463146401E02F097FBE86976
:101FA000022802DC286A022823DDA86A022802DD52
:101FB000E1690F1A01E0E769BF1EA86803F09DFB05
:101FC000E969022909DD20693B46421800F1020C4B
:101FD00031466046521E02F01DFC286A022808DDC8
:101FE000A269E8693B46101A3146401C921E02F075
:101FF00011FC286803F081FBD4E90620216902F076
:102000007DFA686803F079FBD4E906202169401E57
:10201000491C521E02F072FAA86A022811DDA16959
:102020002669E469A1F10208271AA41EB61C7F1CC8
:10203000A86803F062FB234642463946304602F068
:10204000E9FB71E0208A00B2ADF81400A18A09B260
:10205000ADF81610228B12B2ADF81820A38B1BB26C
:10206000ADF81A302C69ED68CDE9005402F00AFA97
:102070005AE0208A298B0844ADF81400A08AADF8F4
:102080001600208B298B401AADF81800A08BADF8F4
:102090001A00206801F0A0FC0390006FF0B102204C
:1020A00003F07EFC039890F87C10C1F3C00100EBB4
:1020B0008100006C03F021FB0398406B03F03AFBB6
:1020C0000398006F01F088FC03990990B1F95A2038
:1020D00005A902F043F809A801F0BCFC03A801F02F
:1020E000B9FC21E0208AADF81400A08AADF81600F2
:1020F000208BADF81800A08BADF81A00A86803F08B
:10210000FCFA05A802F0B2FB0EE0206801F064FCC6
:10211000039030F85A1F41F00C01018003A801F030
:1021200099FC206813F028FC00206AE62C050020AA
:1021300038B505004FF000040FD002F0BFFC284670
:1021400001F04AFC009090F87C00000700D50124C3
:10215000684601F07FFC03F02BFE204638BD0000EE
:10216000074A0649054B1160064A083BD169586089
:102170001B68C2E9063008467047000020050020B1
:102180006C0A0020700A002010B50146002091F86A
:102190003220920607D5B1F95400002803D1486BCC
:1021A00002F049FC801C10BD70B58AB00C46054693
:1021B00001F012FC0990C06D866809A801F04AFC84
:1021C000009534B1012C06D0022C0BD0032C04D185
:1021D0000AE0182000E016200190716868468847E0
:1021E0000AB070BD1520F7E71720F5E72DE9FC418F
:1021F00017468846044601F0EFFB0090C16D056864
:1022000068468E6801F026FC32680021204690471F
:102210000646204613F0E8F827E000BF01F0DCFB9B
:102220000190B0F900102AB2B0F90430891A9A1A54
:10223000B0F90230A3EB2543B34210D190F8280047
:10224000000605D53868884209DB491E396006E07A
:10225000D8F80000904202DC521CC8F8002001A807
:1022600001F0F8FB204613F0D9F80400D6D1BDE800
:10227000FC81000070B54A4888B00024016841F034
:1022800080010160016801F080010791016841F45B
:1022900080710160006802A900F4807007908020BE
:1022A000012581E83100032005903E4804F058FFE5
:1022B0002802CDE9020502A93B4804F051FFFFF7CF
:1022C0006BF83A4EC6F8A042142006F528761FF0A7
:1022D000F1F8356032201FF0EDF88DF80040022251
:1022E0006946A12000F072F89DF80000302803D163
:1022F0009DF80110032931D09DF8011001292DD03E
:1023000002292BD00422694648F2401000F00AFE50
:102310008DF80440694626A0FEF712F82748009978
:1023200048F24005C0F8021002208DF8000001229A
:102330006946284600F04AFF01226946E81D00F080
:10234000F1FD0A201FF0B6F88DF800400122694621
:10235000284600F03BFF08B0002070BDC9B201EB79
:10236000002117A0FDF7ECFF01226946002000F0D4
:1023700087F901226946A42000F082F916208DF821
:10238000000001226946802000F07AF90C208DF8C7
:10239000000001226946882000F072F9DBE70000A6
:1023A00030380240001C024000200240000044423D
:1023B0004354502049443A25730D0A003000002050
:1023C0004354502049443A25780D0A002DE9F04144
:1023D00015460F460446FFF7ABF87020FFF772F87A
:1023E000FFF7F2F8E0B2FFF76DF8FFF7EDF8FFF74F
:1023F0009FF87120FFF766F8FFF7E6F800246E1EDD
:1024000009E0B44201D0012000E00020FFF71EF8EF
:102410003855641CE4B2AC42F3D3BDE8F041FFF799
:10242000ADB800002DE9F14783B000278F4E8DF83D
:1024300004704FF00A0A70788D4C401CC0B2B0FB9B
:10244000FAF20AFB1201B846707009B10A287DD26F
:10245000864888A1801CFEF761F94FF0010203A9AC
:10246000F0B10220FFF7B2FF9DF80C0001076DD01C
:1024700000F00F013078814268D8FF228A40D143B2
:1024800094F8209041F0C00184F8201004EB400043
:10249000A1894181E18A81828DF80470764D92E0B4
:1024A00048F24E15284600F03DFD9DF80C0001064F
:1024B000DAD5317800F00F008842D5D88DF8047055
:1024C000012201A9284600F081FECDE794F82010F2
:1024D00001228240114271D0644866A1801CFEF73F
:1024E0001DF918B365489DF80410042230F8110056
:1024F0006946FFF76BFF94F830009DF80010C007A5
:102500009DF8010001F00F0146D000EB01219DF87C
:10251000040004EB4000C1829DF802209DF80310E6
:1025200002F00F0201EB0221818147E053489DF840
:1025300004100A30042230F81100694600F0F2FC61
:1025400094F83000C0079DF8020000E056E09DF8C6
:10255000031011D000EB01206988091A9DF80400CE
:1025600004EB4000C1829DF800109DF8012001EBB2
:1025700002212A88511AD7E700EB01219DF80400B7
:1025800004EB400081819DF800109DF8012001EBD3
:1025900002216A88511A10E000EB01202988091AEB
:1025A0009DF8040004EB400081819DF802209DF815
:1025B000031002F00F0201EB0221C1829DF804001A
:1025C000401C8DF804009DF8040031788842FFF427
:1025D0007DAFA08929884FF00108884203D8E08A9E
:1025E0006988884209D99DF80C0000F00F00012885
:1025F00012D9E089A081208BE08277701B481DA151
:10260000801CFEF78BF800289DF80C004FF6FF7138
:102610000FD0C00624D01AE0307804EB4000418986
:10262000A181808AE08280208DF80C0084F82090BF
:10263000E4E700F08F00802812D008E020F080004E
:1026400003E0A181E18200F0E00084F820007078CE
:10265000F02801D986F801A004B04046BDE8F08713
:1026600094F820000206ECD5E8E7000030000020D6
:102670004000002039313100B41B0020567502089B
:102680002DE9F04115460E4604460027FEF750FF9F
:102690007020FEF717FFFEF797FFE0B2FEF712FF7C
:1026A000FEF792FF002408E0305DFEF70BFFFEF717
:1026B0008BFF070003D1641CE4B2AC42F4D3FEF7F5
:1026C0005DFF3846BDE8F08110B504460A2812D0F7
:1026D0000D2C14D002F0F2F909480068C0690168B5
:1026E000204688470748016809B120468847BDE869
:1026F000104003F05DBBBDE8104001F055BC10BDBB
:10270000BC020020E80200202DE9F0430446C56821
:1027100087B090468946002003F000F8064625B1B0
:10272000287910B146F0020001E026F0020002F024
:10273000F5FF2069012558B1D4E902128DE8260081
:10274000039563882288046841464846A0471EE0F6
:10275000124F134B214638681B68427CE06898474B
:1027600030B9E088012801D0002001E03868806B92
:10277000A288E388A1680095CDE90410CDE9023272
:102780000195638822884146484606F079FE07B0E5
:102790003046BDE8F04302F0C1BF0000BC0200209B
:1027A000B40200202DE9F0478146884640F2C3205C
:1027B00050434FF47A7190FBF1F502FB02F002EB0B
:1027C000D27100EB610617460023414648466D1C56
:1027D000FFF754F9012413E004FB04F007FB0700A2
:1027E000B04206DD3B46224641464846FFF746F9E1
:1027F0007F1E3B46224641464846FFF73FF9641C90
:10280000AC42E9DDBDE8F0871CB50024019401ACC1
:10281000009400F0E7F81CBD2DE9FF4F83B081461E
:1028200006988A46A0EB0A08109E00200090A2EBB2
:1028300009043568934654EA080018D02046FEF78C
:1028400087FA07464046FEF783FA87420BDA2046AE
:10285000444680464846D14682465846DDF818B080
:10286000069001200090002C07DD204606E007B00E
:102870004846BDE8F04F00F03BB96042A0420AD0A4
:102880004846D9466442C8F1000883464FF0FF37F6
:10289000DDF818A000E001275148B8F1000F11D071
:1028A00004EBD4714FEA610B01DACBF1000B4C4819
:1028B0000068807E88B3002F02DA306820443060E0
:1028C00000257BE000990029016821D0897E11B1A3
:1028D0000027804615E007B05A4649465046BDE8F5
:1028E000F04F07F007B828466D1C1CF0C9F838B93E
:1028F000D8F8000009EB0701406E42685046904747
:102900007F1CA742EFDD6D1E356007B0BDE8F08F7C
:102910008A7E1AB10027804617E019E0486E5A46B1
:102920005146036807B04846BDE8F04F18472846AF
:102930006D1C1CF0A5F838B9D8F8001009EB070099
:10294000496E4A68514690477F1CA742EFDDDAE79F
:1029500000250FE008FB05B090FBF4F101EB0A0045
:10296000009951B11E4A09EB05011268526E526876
:1029700090476D1CA542EDDDC7E7194909EB05033A
:102980000968496E4A6801461846F1E708FB05B038
:1029900090FBF4F101EB0A0001903068384430609C
:1029A0001CF06EF848B9009890B10D4809EB05018C
:1029B0000068406E4268019890476D1CA542E5DDB5
:1029C0003068002F01DA20443060C01B30609CE783
:1029D000034909EB05000968496E4A680199EBE76C
:1029E000BC0200202DE9FF470F46404916468046AD
:1029F00009680C981D460A7E012A1CD0A8EB060027
:102A0000791B50EA01031CD0A2F101091EF074FCED
:102A100000F58060824604F098F900FB09F4504606
:102A200004F098F900FB09F1002C0CDAC4F50070F1
:102A3000801240420AE00090324639464046FFF795
:102A4000EBFEBDE8FF8704F50074A012002904DA4C
:102A5000C1F5007189124C4202E001F500718C123F
:102A6000002804DD411C01EBD171491003E000EBAB
:102A7000D0714910401E00EBD0704210002C04DDD4
:102A8000601C00EBD070401003E004EBD4704010E9
:102A9000641E04EBD47308EB0104ADF800403C184D
:102AA000ADF80240A8EB02045B10B21AADF8044086
:102AB000ADF808203144FC1AEA1AADF80C1028448D
:102AC000ADF80A20ADF80E000023ADF806401A4616
:102AD0000421684600F07AF83946404618F026F995
:102AE0002946304618F022F9ABE70000BC0200206E
:102AF000064A13681A7E012A05D0521E02EBD272D2
:102B0000521000F005B85A6E52681047BC020020FF
:102B10002DE9F05F0646884640F2C32002FB00F133
:102B20004FF47A7091FBF0F702FB02F102EBD270E6
:102B300001EB600B1446B118234A301B7F1C12684E
:102B4000526E13680A4641469847012538E000BF97
:102B500005FB05F004FB040159451CDDBC4219DDF1
:102B6000194B06EB050AA6EB05091B68AAF1010241
:102B700008EB04015B6E09F101001B689847124BDA
:102B8000AAF10102A8EB04011B6809F101005B6EC8
:102B90001B689847641E0C4B3219301B1B68924609
:102BA00008EB05015B6E81461B689847064B524651
:102BB000A8EB05011B6848465B6E1B6898476D1CB7
:102BC000BD42C5DDBDE8F09FBC0200202DE9FF4FEE
:102BD00043F6FF740F46664283B09B468146002150
:102BE0000BE000BF09EB8100B0F90200A04200DA5F
:102BF0000446B04200DD0646491CB942F2DB674894
:102C00000068406900280DD0B0F906101A46A1EB03
:102C10000B01B14200DA0E46B0F90200801AA04260
:102C200000DD0446B4E0DFF878A100200546CAF8CC
:102C3000000088E0781E854201DA6B1C00E000236A
:102C400009EB850C09EB8302BCF90200B2F9021012
:102C5000A04244D1A14215D139F92330059A39F95E
:102C6000251003EB020C4D4A05981268084404EB4A
:102C70000B01526E6045136801DA62462AE0024693
:102C8000604627E02846A4464FF000087A1E0BE075
:102C900008B1401E00E0781E09EB8003B3F9023052
:102CA000634504D108F101089045F1DB2346A342B6
:102CB00048D01A1B39F92500A1EB040C059B92EAB8
:102CC0000C0F09D4354A184404EB0B011268526EFC
:102CD00013680246984735E013F026FB32E0A14224
:102CE00030D001DBA04203DDA0422BDBA14229DC76
:102CF000E04688420ADC0346A04223DC0846A142A3
:102D000020DBB8F900C0B2F9001008E00B46A14280
:102D100018DCA04216DBB2F900C0B8F90010E21AC4
:102D2000A1EB0C0151430029A0EB030202DD01EBF2
:102D3000620102E0A1EB6201491CC01A91FBF0F0B4
:102D40006044C9E76D1CBD42FFF674AF0598009062
:102D500004EB0B00019000208046054613E011496A
:102D6000B8F1000F31F915A009D0009901EB0A0262
:102D700008440A490968496E0B680199984788F028
:102D8000010850466D1C064909688D42E7DB641C4A
:102D9000B4427FF748AF07B0BDE8F08FBC02002017
:102DA0000803002054D1012010B5002002F09AFC45
:102DB0006FF07F4002F0A1FC012002F0D3FD002063
:102DC00002F0DEFD002002F0EBFD002002F0A6FC88
:102DD0000448006802F0AEFCBDE81040002002F09C
:102DE000D1BC0000B80200202DE9F0433E4889B074
:102DF0000024016841F080010160016801F0800158
:102E00000791016841F4807101600068802600F438
:102E10008070079001AA012503270096DFF8CC9067
:102E200082E8B0006946484604F09AF92802CDE9E4
:102E3000000569462E4804F093F9FEF7ADFADFF875
:102E4000B480C8F8A0420A201EF034FBC8F8A05293
:102E50000A201EF02FFBCDE90064CDE90247694648
:102E6000484604F07DF964201EF024FB042205A9E5
:102E700048F2401000F056F88DF8184005A91EA041
:102E8000FDF75EFA1FA105A8FDF748FC40BB022034
:102E90008DF8140048F24005012205A9284600F0EB
:102EA00095F9012205A9E81D00F03CF89DF81410E1
:102EB00060290BD215A0FDF743FA19488088A0F5C8
:102EC000AA41103902D1012000F05AF90A201EF05F
:102ED000F1FA8DF81440012205A9284600F076F990
:102EE00009B00020BDE8F08330380240001C0240E9
:102EF00000200240000044424354502049443A25F7
:102F0000730D0A00393134370000000044656661F2
:102F1000756C74205665723A25640D0A0000000035
:102F2000B41B00202DE9F04115460F460446FEF77C
:102F3000FFFA2820FEF7C6FAFEF746FB200AFEF746
:102F4000C1FAFEF741FBE0B2FEF7BCFAFEF73CFB2C
:102F5000FEF7EEFA2920FEF7B5FAFEF735FB00245E
:102F60006E1E09E0B44201D0012000E00020FEF70F
:102F70006DFA3855641CE4B2AC42F3D3BDE8F041BD
:102F8000FEF7FCBA2DE9F14F794E00244FF00A0B01
:102F9000307882B0401CC0B2B0FBFBF20BFB1201D8
:102FA000744DA146307009B10A2876D248F24E1706
:102FB000012202A93846FFF7B5FF9DF808004FF03F
:102FC000000801060AD500F00F00062806D28DF889
:102FD0000480012201A9384600F0F8F89DF80800A5
:102FE00001075AD000F00F01062956D2FF20884071
:102FF0008DF80400C04395F820A040F0C00085F88B
:103000002000A889A882E88A5B4FE8834FF0010975
:1030100095F8201009FA04F0014266D057480422BE
:10302000694630F81400FFF77DFFB888A0F5AA4183
:10303000103906D0A0F58641423918D042392DD03A
:1030400053E095F83000C0072CD09DF800009DF8A3
:10305000011000EB012105EB4400C1829DF8021034
:103060009DF8032001EB0221C1F548713CE095F881
:103070003000C00716D19DF800009DF8011000EB4C
:10308000012105EB4400C1829DF802109DF8032048
:1030900001EB0221C1F5887126E041E095F830008E
:1030A000C00710D09DF800009DF8011000EB012131
:1030B00005EB440081819DF802109DF8032001EB8F
:1030C0000221C18211E09DF800009DF8011000EB83
:1030D000012105EB4400C1829DF802109DF80320F8
:1030E00001EB0221C1F5F0718181641CE4B2052C71
:1030F0008ED3A9893A884FF001092846914203D816
:10310000C18A7A88914209D99DF8081001F00F010F
:1031100001290CD9C1898181018BE98286F800805F
:103120009DF8080000F08F0080280AD018E0818AFE
:103130008181C18BC18280218DF8081085F820A083
:10314000EEE795F82000010602D520F0800005E0AA
:103150004FF6FF71A981E98200F0E00085F82000B8
:103160003078F02801D986F800B04846BDE8FE8FD7
:103170003700002040000020B41B00202276020807
:1031800008B500218DF800108DF801000E489DF85B
:103190000020435C491C1A44C9B28DF80020B829AC
:1031A000F5D3D0B2C043401C8DF80000B8220649C8
:1031B00048F2470000F00AF80222694648F2FF0090
:1031C00000F004F8002008BD6A7502082DE9F041FE
:1031D00015460E4604460027FEF7AAF92820FEF7FA
:1031E00071F9FEF7F1F9200AFEF76CF9FEF7ECF938
:1031F000E0B2FEF767F9FEF7E7F9002408E0305D7A
:10320000FEF760F9FEF7E0F9070003D1641CE4B2B1
:10321000AC42F4D3FEF7B2F93846BDE8F0810000C5
:10322000014AC2E90001704768020020014AC2E970
:103230000001704770020020014AC2E90001704796
:1032400078020020014AC2E90001704768030020AB
:103250002DE9F04FDFF828B191B04FF0FF35DBF8E2
:103260000030B3F922100691DE69B3F92490F469B5
:10327000A189814206D8E289824203D3471AD4F851
:10328000008012E0D4E9018100296FD00A888242CF
:103290006CD84D88854269D3801A82B2486800EBA9
:1032A0008200B0F90070B0F90250781C5ED0307E18
:1032B000A17C10FB01FA217CCDE90701B3F92A605A
:1032C000304607F015FAC0B20E90DBF8000007FB9D
:1032D0000A81A37C826B0127CDE90412CDE9027338
:1032E000C069089AC17E807ECDE90001DDE9060350
:1032F000494606F0C5F8681C18D046F0020007F0F1
:10330000F7F9DBF80000A37C05FB0A81826BCDE9AD
:103310000273CDE90412C069089AC17E807ECDE9AE
:103320000001DDE90603494606F0AAF8DBF80000D3
:103330005D46C069417E007E814214D9022E12D0C2
:1033400086F0040007F0D4F92868C069027EC37EC5
:1033500012FB0391437E857E089A06984B4412FB2C
:10336000050206F0CBFB0E9807F0C2F9DBF800006F
:10337000627C418C1144418411B0BDE8F08F0000A3
:10338000BC02002004480068C069C06909B1027C21
:103390000A60407C70470000BC02002002200880C8
:1033A0007047C06982898A4202D8C2898A4210D293
:1033B000806880B102888A420DD843888B420AD344
:1033C000406800EB8100A0EB8200B0F9000000280B
:1033D00001DB01207047002070470000F0B52C4D44
:1033E000044687B028682146B0F92A60C069C069E0
:1033F00000F066F9002848D041680088201A00EBE8
:10340000400001EB80042078C01C8708304607F09C
:103410006FF906461F48D0F800C0BCF1000F1AD063
:103420000021A068CDE904010222012001A9009039
:1034300081E88500286894F90320DCF80070B0F971
:103440002410B0F92200114494F90220637810444A
:103450002278B84711E0A068CDE90070286894F997
:1034600003206378B0F92410B0F92200114494F9D4
:1034700002201044227800F0C5F9304607F038F9F0
:1034800028682279418C1144418407B0F0BD0000C6
:10349000BC020020F80200202DE9F043304C034626
:1034A00087B020681946B0F92A60C069C06900F089
:1034B00040F9002850D041680088181A01EBC00577
:1034C0003046AF7807F014F9814620686A68012316
:1034D000816BCDE90237CDE90421C169CB7E8A7EBB
:1034E000CDE900230B7EB0F924102A78B0F9220030
:1034F00005F0C6FF2068C069417E027E91421FD957
:10350000C07E11FB00F812FB00F7022E18D001F06C
:10351000F8F9064601F0BEF902F0EFF821682A78C2
:10352000CB69B1F92200DB7E12FB0302B1F9241052
:1035300001EB0803394406F0E1FA304602F0DDF809
:10354000484607F0D5F820686A78C369B0F92210B8
:103550009B7E12FB0311418407B0BDE8F08300009D
:10356000BC02002030B5104C05460B4620682946A9
:10357000C069C06900F0A4F8002814D04168008830
:103580002468281A00EB40020420E46900EB820062
:10359000085CA47E10FB04F0002B04D011F822106C
:1035A00011FB04F1196030BDBC02002003460C4839
:1035B00010B500680C461946C069C06900F080F873
:1035C00058B141680088181A00EB400001EB8000F8
:1035D00007C884E80700002010BD012010BD0000CE
:1035E000BC02002001200880704700B5C06900F0CF
:1035F00067F8002800D0012000BD00002DE9F3414C
:103600001C4E0F46002530682C46C069417EC07EA6
:1036100011FB00F81DE0684602F0A2FA054630688A
:103620002946C069C06900F04BF890B14168008834
:10363000281A00EB400001EB800090F9021000799D
:1036400008443168C969897E10FB01F0002800DD5B
:1036500004447F1EDFD51DB1284603F0B1F90444B0
:103660004146204613F020F8034901200870BDE8C8
:10367000FC810000BC020020000300202DE9F34182
:103680000D4D0E4F0E462868B0F92A40A0070AD10A
:103690007A680098904706E0684602F061FA296867
:1036A000C96909688847761EF6D5002038702868F1
:1036B0004485BDE8FC810000BC020020000300201E
:1036C00006E002888A4202D842888A4202D2806892
:1036D0000028F6D17047000030B50F4C05460B4668
:1036E00020682946C069C06900F023F8002812D07C
:1036F0004168008824682A1A0120E46900EBC200AE
:10370000085CA47E10FB04F0002B04D011F83210EA
:1037100011FB04F1196030BDBC02002001200880BB
:10372000704700B5C06900F004F8002800D00120FF
:1037300000BD06E002888A4202D842888A4202D24C
:1037400080680028F6D1704770B50025124C19E04A
:1037500020691249C5EB051600EBC6007022096806
:10376000001DFCF779FF2069002140F8361000EBBE
:10377000C60000F10C018161011D0A1DC0E90F1294
:103780006D1C4164A0688542E2DB01F097F9BDE859
:10379000704002F00DBB000084090020BC02002034
:1037A00070B50F490D480860084603F03BFA0C4C11
:1037B000143CA068C0EB0010C500284600F08CF84F
:1037C0002A460021206103F06FFA4FF0FF3020609D
:1037D00002F03EFBBDE8704019F036BA9DD40108F6
:1037E0009809002002490120096881F869007047A2
:1037F000BC0200200249096881F8680012F082BE0C
:10380000BC0200207CB5074EDDE906543668367CE4
:10381000CDE90054B60702D416F02EFE7CBD16F09A
:103820007DFE7CBDBC02002010B5040009D001F073
:1038300045F9204612F00AFE044602F0B9FA204685
:1038400010BD002010BD38B5054601F037F92846F7
:10385000FFF7EAFF040009D000F0BEF82A46002175
:10386000009003F021FA684600F0F4F802F0A0FAA4
:10387000204638BD024A106021F0030050607047B6
:10388000D8D0012010B5040016D001F017F90B486C
:10389000406B10F8341059B1022909D2042101EB10
:1038A000C4014158486812F05BFD20461AF03AFF07
:1038B000BDE8104002F07CBA10BD000018D0012015
:1038C000002805D0034AD16B016001B14860D06384
:1038D0007047000018D001202DE9F041044619F08E
:1038E000D9FB2848E41C24F00305016C2D1DA942D6
:1038F00000D90D46C46B13E054F8042CAA420ED133
:1039000084B1216809B162684A60616809B12268BE
:103910000A60C26BA24231D12168C1632EE02468E3
:10392000002CE9D18046816BC0680F1857F8040C51
:103930003E1A306838B100201AF074FF57F8040CB2
:103940003E1A3068D0B97068A84217DB3044441B77
:103950003046241D1AF01EFFD8F80C10491BC8F879
:103960000C10D8F814102944C8F814107068401BC3
:1039700002D0314612F0F4FC44F8045C2046BDE865
:10398000F081000018D0012010B5002419F082FB4E
:103990000C490F2001EBC002526C1AB101EBC000C0
:1039A000406C08E0401EF5D508E04168A14200D90E
:1039B0000C46806810B180680028F6D1A4F10C0094
:1039C00010BD000018D0012002488169491C8161A6
:1039D0007047000018D001200549CA69521CCA610D
:1039E000496B01EBC0010A78521C0A7000F04AB81A
:1039F00018D0012010B501F061F8FFF7C5FF64226F
:103A00000849B0F5800F04D990FBF2F4086A4443EA
:103A100003E0096A4143B1FBF2F402F0C9F9204620
:103A200010BD000018D001200549102805D94A68AA
:103A3000B0EB520F02D3500800E0102088607047AE
:103A4000D8D0012002488169491E81617047000079
:103A500018D001200A4902684B6B52F8082C03EB7E
:103A6000C2021378022B03D3CB690BB15B1ECB616F
:103A70001178491E1170002101600846704700004E
:103A800018D00120002806D00349042202EBC00010
:103A9000496B08580830704718D0012038B5002409
:103AA00030B1FFF799FF009004886846FFF7D2FF16
:103AB000204638BD38B50D46002448B1FFF78CFFCD
:103AC0002946009000F016F804466846FFF7C2FF4A
:103AD000204638BD38B50D46002448B1FFF77CFFBD
:103AE0002946009000F018F804466846FFF7B2FF38
:103AF000204638BD38B50D4601880024A94209D9B1
:103B0000406838B1FFF768FF009050F825406846DC
:103B1000FFF7A0FF204638BD10B50024FFF7EAFFED
:103B200010B1FFF759FF0446204610BDF0B52D2710
:103B30001C68B0F1004F08D0002600280DDA651C83
:103B40001D6027704042012408E0651C01261D60AD
:103B50006FF000402770491E01E00024091BC9B224
:103B60002AB3491EC9B222E00C46491EC9B294428A
:103B700005D1124C27781C68651C1D602770104CFD
:103B800054F8215090FBF5F4E4B20A2C11D804FB50
:103B9000150011B90EB1641CE4B20A2C02D1012443
:103BA000491CC9B21D686F1C30341F602C7000297D
:103BB000DAD1196800200870F0BD0000B0020020C2
:103BC00014B0020810B5136808290DD85C181460E9
:103BD00000222270054A04E000F00F040009145D81
:103BE0005C54491EC9B2F7D210BD00003CB00208B7
:103BF00010B5002807DD0A682B24531C0B601470D5
:103C0000096800220A7010BD10B5C2B2CBB2D21A38
:103C100000D5524293B25B43C0F30722C1F307249D
:103C2000121B00D55242000C92B2A0EB114002FBD5
:103C3000023200B2002801DA404200B280B200FB3A
:103C4000002010BD10B50021084600F009FF43F622
:103C5000FF725042BDE8104013460146AFF30080AA
:103C60002DE9FC411C4615460E46074600F026FF8E
:103C7000042006F03DFD80461248C068C16C006D0E
:103C80000F4406440D440444ADF80070ADF80450F0
:103C9000ADF80260ADF80640684611F0DDFF07E0C0
:103CA00023462A463146384605F028FF11F096FF94
:103CB0000028F5D1404606F01BFD02F079F8BDE87A
:103CC000FC810000B00200202DE9F0411C461646A0
:103CD0000D460746022B02DB0020BDE8F0811C20C8
:103CE000FFF7FAFD0028F8D00DB105610AE0094A96
:103CF00052F8241009B905E011460A68002AFBD1E0
:103D00000969016184618682002101604160C0E926
:103D10000217E2E7D402002070B51D46FFF7D4FF7A
:103D2000040009D000F00EF8E068006820B90348EC
:103D3000006800EB85008465204670BDBC02002051
:103D4000FFF7BEBD70B590B38269022A30DA1E4C0F
:103D500054F8221019B944F8220032E019464B6891
:103D6000002BFBD106E0CB68C5681B682D68AB4211
:103D700003DD09680029F6D11AE0C1B1CB68C66835
:103D80001B683668B3420CD1838A012B05D008E04A
:103D90001946DB681B68AB4203DB0B68002BF7D1CD
:103DA00029B14B6833B118604A68426004E0FFE70C
:103DB000012070BD44F822004860884200D10021F3
:103DC0000160002070BD0000D402002010B503E0A7
:103DD0000468FFF7B7FF20460028F9D110BD1BF09B
:103DE0007BB900002DE9F0410026DFF834800D4F4B
:103DF000354600BF58F8254009E0E0680068385CA7
:103E000020B120461BF068F9266026462468002C65
:103E1000F3D16D1C022DEDDB3046BDE8F0810000D2
:103E2000D4020020F88C0208022801DB0020704731
:103E3000054A52F8200004E0C26812688A42F6D0AF
:103E400000680028F8D17047D4020020022801DB66
:103E500000207047054951F8200004E0C168096856
:103E60000029F6D000680028F8D17047D40200205D
:103E70002DE9F8431D461646884604000CD0FFF78E
:103E8000ABFD0090006807686846FFF7E3FD2B462E
:103E9000324641462046B847BDE8F88338B50400AD
:103EA0004FF000000AD02046FFF796FD0090006812
:103EB00045686846FFF7CEFD2046A84738BD38B5AF
:103EC00004004FF000000AD02046FFF785FD009067
:103ED000006885686846FFF7BDFD2046A84738BDE5
:103EE0002DE9F041044601F09DFF06191EE000BFD8
:103EF00000F014FC052F00DD052700F0DFFD114860
:103F00000568FFF761FD2C0017D000BF01F050FFDE
:103F1000641EFBD1384601F069FF1DB100F0CEFDF3
:103F20006D1EFBD1FFF78EFD01F042FF01F07AFF1D
:103F3000371A002FDCDCBDE8F081384601F056FF6F
:103F4000F0E700009009002070B514460D460646C3
:103F500000F0B4FD0548016830464D848C84FDF7BF
:103F6000E7F8BDE8704001F023BF0000BC0200206C
:103F70001FB503ABCDF80CD0FFF7D8FD684600F0B5
:103F80003BF81FBD002112F09BBF7FB514460D46C4
:103F9000CDF80CD003AA1946FFF714FE2246294695
:103FA000684600F0ADF87FBD10B500F087FD00F069
:103FB000C1FC054909688A8C10448884088C4884AF
:103FC000BDE8104001F0F4BEBC0200207FB50C46F5
:103FD0001546CDF80CD003A9FFF70AFE002801DD35
:103FE000641EE4B203AB2A462146FFF79FFD6846F4
:103FF00000F002F87FBD00002DE9FC4706005FD00D
:1040000000F05CFD00F096FC3C4C81462068B0F965
:10401000228000F0EDFC216807468A8CD01B888442
:1040200041E000BF47F6FF71304602F091FC824646
:104030000146304602F062FC2168054691F82C00EA
:1040400000F00300012841D002283BD000204A8C18
:10405000101A4884ADF800006A1E1044ADF8040040
:10406000888CADF80200A9F101010844ADF8060002
:104070006A465146304602F0ADF82168BDF80200AC
:1040800088845146304601F081FD064430780A2884
:104090001ED00D281CD0BDF800002168284448849B
:1040A000307818B1761C30780028BBD12068818C1C
:1040B00039448184818D21F00301818501F078FEEE
:1040C000BDE8FC8705EBD5704010C0E72846BEE789
:1040D000206890F82C1001F0030101290BD002296F
:1040E00009D0018C418431780A29D9D1828C02EB24
:1040F00009018184D4E7A0F82280F4E7BC02002003
:1041000070B514460D46064600F0D8FC0548006818
:10411000458484843046FFF76FFFBDE8704001F0AE
:1041200047BE0000BC0200202DE9F04107460A48C6
:1041300015460E460068B0F92C0040F0020001F070
:104140001FFC04462A4631463846FFF7D9FF204671
:10415000BDE8F04101F014BCBC02002047F6FF733B
:1041600000F044B82DE9FF471F460C9E90460D46CF
:10417000814696B300240094019400F09FFCADB1F9
:1041800028680090686801901748009901600199BB
:104190004160284611F038FC040007D00246294649
:1041A00002A802F042FC02A811F02EFC30461AF0E0
:1041B000F7FD05467168684688473B4642466946B2
:1041C000484602F05FF8204611F01EFC28461AF01F
:1041D000E7FD01F0EDFDBDE8FF87FFE704B0BDE8B6
:1041E000F04700F003B800007C0900202DE9FC41F5
:1041F0001F4690460D4606004FF000041AD000F00E
:104200005DFC65B1284611F0FFFB040007D00246B3
:104210002946684602F009FC684611F0F5FB3B466A
:1042200042462946304602F02DF8204611F0ECFBBC
:1042300001F0BEFDBDE8FC817CB514460D46064686
:1042400000F03CFC11480068C16C006D0D44044452
:104250003188681E0844ADF80400ADF8005071883C
:10426000601E0844ADF80600ADF80240684611F043
:10427000F3FC06E0224629463046FEF745FA11F0E7
:10428000ADFC0028F6D101F093FD7CBDBC020020FE
:104290007CB514460D46064600F010FC1048006838
:1042A000C16C006D0E440544301BADF800003019A0
:1042B000ADF80400281BADF802002819ADF806007F
:1042C000684611F0C9FC06E0224629463046FEF752
:1042D00069FA11F083FC0028F6D101F069FD7CBD7C
:1042E000BC0200201CB50A460146684602F08CFC60
:1042F00000F0E4FB2548BDF80010006830F84C2FB2
:104300001144ADF80010BDF8021082881144ADF8D8
:104310000210BDF8041002881144ADF80410BDF875
:10432000061080880844ADF80600684611F094FC39
:1043300027E000BFBDF900400BE000BFBDF902104F
:10434000204605F08BFABDF90610204605F086FAE6
:10435000A41CBDF90400A042F0DABDF902400AE055
:10436000BDF90000214605F079FABDF904002146A7
:1043700005F074FAA41CBDF90600A042F0DA11F0B1
:104380002DFC0028D6D101F013FD1CBDBC0200207D
:104390002DE9F04F87B09B46DDE9109892460C4618
:1043A000054600F08BFB16480168C86C096D47197B
:1043B0000E1900EB0A0501EB0B04ADF81070ADF817
:1043C0001450ADF81260ADF8164004A811F044FC8A
:1043D00088B1DFF830B04FF0000ACDE90098CDE9A0
:1043E00002BA2B4622463946304616F0ABFA11F097
:1043F000F5FB0028F1D101F0DBFC07B0BDE8F08F40
:10440000BC020020F59800082DE9FF4F87B09346C5
:10441000DDE915980C460546DDF850A000F04EFB8E
:1044200016480168C86C096D471900EB0B050A981E
:104430000E190C18ADF81470ADF81850ADF81660E0
:10444000ADF81A4005A811F007FC90B14FF0010B30
:104450000B49CDE900A9CDE9028123462A46CDF8D2
:1044600010B03146384616F02CFB11F0B7FB00288F
:10447000EED101F09DFC0BB0BDE8F08FBC02002036
:104480006D9700082DE9F04F87B09B46DDE9109845
:1044900092460C46054600F011FB16480168C86CB0
:1044A000096D47190E1900EB0A0501EB0B04ADF875
:1044B0001070ADF81450ADF81260ADF8164004A8B5
:1044C00011F0CAFB88B1DFF830B04FF0010ACDE936
:1044D0000098CDE902BA23462A463146384616F0FE
:1044E00031FA11F07BFB0028F1D101F061FC07B03B
:1044F000BDE8F08FBC0200206D9700082DE9FC415B
:1045000014460D46064600F0D9FA114F3968C86CBA
:10451000096D054404440E44ADF80050ADF8044064
:10452000ADF80260ADF80660684611F095FB08E052
:10453000386822463146406E03682846984711F095
:104540004DFB0028F4D101F033FCBDE8FC810000F4
:10455000BC0200202DE9F0411C4615460E460746D8
:1045600000F0ACFA0C480168C86C096D07440544BA
:104570000E440C44002011F06FFB07E023462A464E
:1045800031463846FEF740F911F028FB0028F5D1F6
:10459000BDE8F04101F00CBCBC0200207CB50C462B
:1045A000064600F08BFA0F4D2868C16C006D0E4472
:1045B0000444ADF80460ADF80060ADF80640ADF815
:1045C0000240684611F048FB07E028682146406E2B
:1045D00042683046904711F001FB0028F5D101F008
:1045E000E7FB7CBDBC0200202DE9FC411C461646C1
:1045F0000D46074600F062FA1A480168087ECA6C48
:10460000096D17440D440C44401E391A1644ADF888
:1046100000103118ADF80410291A2044ADF8060036
:10462000ADF80210684611F017FB15E03246294636
:10463000384605F09BF832462146384605F096F894
:10464000621E691C384605F055F9621E691C304629
:1046500005F050F911F0C2FA0028E7D101F0A8FBEB
:10466000BDE8FC81BC0200202DE9FE4399461446BA
:104670000D460646DDF8288000F020FA1248016851
:10468000C86C096D87194E19051901EB0904ADF8BD
:104690000470ADF80850ADF80660ADF80A4001A806
:1046A00011F0DAFA09E023462A4631463846CDF8B9
:1046B000008016F0ADFB11F091FA0028F3D101F063
:1046C00077FBBDE8FE830000BC0200207CB51446E9
:1046D0000D46064600F0F2F90F480068C16C006D07
:1046E0000E4405440444ADF80060ADF80460ADF834
:1046F0000250ADF80640684611F0AEFA06E02246D8
:104700002946304605F0F6F811F068FA0028F6D18F
:1047100001F04EFB7CBD0000BC02002010B500245F
:1047200000E0012400F004F80028FAD1204610BD72
:10473000094810B50068002410B1804700B1012479
:1047400010F0D4FD00B101240448006810B1804786
:1047500000B10124204610BDE0020020DC02002050
:1047600070B516460C46054600F0A8F90B480068DF
:10477000C16C006D0D440444002011F06DFA06E098
:10478000324621462846FEF7C3F911F027FA0028E1
:10479000F6D1BDE8704001F00BBB0000BC02002068
:1047A0002DE9FC471D4616468846814600F086F9ED
:1047B000164C2068C16C006D0E440544002011F0B9
:1047C0004BFAF0B1124F20681121407C57F82000BD
:1047D0000190C068426A01A890475FEA000C06D0C9
:1047E00033464246494600950198E04705E02B468E
:1047F000324641464846FEF7E9F911F0EFF9002844
:10480000E1D101F0D5FABDE8FC870000BC02002030
:10481000D40200202DE9FC411C4615460E460746F1
:1048200000F04CF910480068C16C006D0F4406445C
:104830000D440444ADF80070ADF80450ADF80260CA
:10484000ADF80640684611F007FA07E023462A460D
:104850003146384605F052F911F0C0F90028F5D17B
:1048600001F0A6FABDE8FC81BC020020B0F90630D8
:10487000B0F90420B0F90210B0F90000FFF7CABF88
:10488000034951F82000C1688A6A082110470000D6
:10489000D402002010B500F011F905F05FF905F021
:1048A00045FA044601F084FA204610BD10B50446CE
:1048B00000F004F9054800210068C06942682046FC
:1048C0009047044601F074FA204610BDBC02002057
:1048D00070B50C46054600F0F1F806482146006820
:1048E000C069426828469047044601F061FA2046B4
:1048F00070BD0000BC020020002801D010F044BDB3
:10490000704710B500F0DAF805F030F905F00EFA4E
:10491000044601F04DFA204610BD000010B500F02D
:10492000CDF803480068047C01F042FA204610BD2F
:10493000BC02002010B500F0C1F804480068C0694E
:10494000447E01F035FA204610BD0000BC02002074
:1049500070B50D46044600F0B1F814B90948006876
:10496000C469294694F82000A87094F822002871A0
:1049700094F82100E870A26820469047BDE8704096
:1049800001F016BABC02002010B500F097F801F053
:10499000ABFF044601F00CFA204610BD70B514467A
:1049A0000D46064600F08AF822462946304605F0B4
:1049B0005BF910B1002028602060BDE8704001F074
:1049C000F7B970B50C46054600F078F82146284640
:1049D00001F0E8FFBDE8704001F0EAB910B5044607
:1049E00001F0D2FF01462046BDE8104001F086BF2D
:1049F00010B5002400F062F80B48006890F82C1005
:104A000001F00C01042904D0082906D00C2907D193
:104A100003E0C069047E641E02E0C069007E4408B1
:104A200001F0C6F9204610BDBC020020417EC07EC8
:104A300011FB00F07047017EC07E11FB00F0704753
:104A4000024951F82000006900687047D402002034
:104A5000024951F82000006940687047D4020020E4
:104A600070B50D46044600F029F8204618F06EF99E
:104A70000446284618F072F9044301F099F92046DB
:104A800070BD000010B501F0CFFA0A492E20087061
:104A900001F0CEF9084818F0C5FA05F0B8F9044657
:104AA0000021084600F07CFE10F06EFDFEF74CFE83
:104AB000204610BDB0020020E4D0012070B5184C93
:104AC000E06820B101F0A6F96168884204D001F0E5
:104AD000DDF901F09FF96060E068401CE0600128AA
:104AE0001CD118F0B1F805462068854216D0002880
:104AF00013DBFFF777F901462068C0EB001220694D
:104B000000EBC2025167C5EB0511064A00EBC1007C
:104B1000011D1160406FFFF759F9256070BD00005D
:104B200084090020BC02002010B5011E01DD0246F0
:104B300000E04A42064B012053F82040944202D83C
:104B4000401C0A28F8DB002900DA401C10BD0000D8
:104B500014B002081CB5040004D10E480068046EAD
:104B6000002C16D0FFF7AAFF2046FEF735FF009075
:104B700044696846FEF76EFF4CB12046FEF72CFFF5
:104B8000019081688968884701A8FEF763FF01F0FA
:104B90000FF91CBDBC02002001490A4600F002B812
:104BA00001F0FFFF2DE9F04387B015460C465FEAA0
:104BB000000846D0FFF782FF002000F0AFFD8146DD
:104BC00021480068066E4046FEF706FF0090006828
:104BD000806900F06BFD074640F6FF70C44204D1C7
:104BE0000098B0F90440B0F906500098611E02899F
:104BF000ADF804401144ADF808104189681E08441E
:104C0000ADF80650ADF80A0010F0BCF96846FEF7A2
:104C100021FF01A811F020F806E02A46214640466F
:104C200000F088FB10F0DAFF0028F6D1384600F0DB
:104C30003DFD304600F090F9484600F06FFD01F070
:104C4000B7F807B0BDE8F083BC02002038B50024F7
:104C5000009400F001F838BD2DE9FE4F98469146CA
:104C60008A46834600270C9EFFF728FF18481949FB
:104C70000068407C51F82040E1680968042903D0AD
:104C80002468002CF8D100E01CB9FFF7DFF804001D
:104C90001BD0E0680121C26A20469047050011D070
:104CA0002469A0688047401C02D10B4C46F00106E5
:104CB0000096CDE9015443464A465146584600F015
:104CC000DFF9074601F074F83846BDE8FE8F0000B2
:104CD000BC020020D4020020F4B0020838B5040061
:104CE0001CD0FFF7EBFE0E480068006EA04201D119
:104CF00000F0CEFC2046FEF76FFE0090406908B140
:104D000001F03FF800980068FFF71AF86846FEF7D0
:104D1000A1FE2046FEF7B6FD01F04AF838BD0000BE
:104D2000BC0200202DE9FF4FDFF83891074683B021
:104D3000D9F800009A468B46447C4B48005701281E
:104D4000204606DD04F0BAFF0546204604F0C2FF07
:104D500005E004F0A2FF0546204604F0A4FF044647
:104D60001FB302A901A8FFF72CFEB7F90000002825
:104D700000DA0020B7F902608046002E00DA002633
:104D800001984119B7F90400491E18F0C0FA054608
:104D900002980119B7F90600491E18F0B8FAA5EBF8
:104DA0000802841B521C641C03E04FF000084646B6
:104DB0002A46BAF1000F01D1C4F1000A002A4FDDE2
:104DC000002C4DDD10980090534631464046FFF7C9
:104DD00043FF5FEA000A10D000F078F80746A042CF
:104DE00006D0D9F80000806C10B1322111F014FA0D
:104DF000504600F0B1F8002521E059460598884753
:104E0000012007B0BDE8F08F611BB94202DA5046BD
:104E100000F086F83DB172194146504600F0C4F8E2
:104E20005046FFF797FE5946059888470F48016896
:104E300009B1002088475046FFF7AEFE3D44A54229
:104E4000E2DB5046FFF74AFF002000F085F8A7425A
:104E500006D0D9F80000806C10B1332111F0DCF9D4
:104E60000020CEE7BC020020F4020020C80C002085
:104E700038B505004FF0000411D0FFF71FFE28469B
:104E8000FEF7AAFD0090006800698068804706F080
:104E900033F904466846FEF7DDFD00F089FF204641
:104EA00038BD38B504000ED0FFF708FE2046FEF7E7
:104EB00093FD00F1180400906846FEF7CBFD00F06A
:104EC00077FF204638BD002038BD000038B50446C5
:104ED0000025FFF7F3FD1CB908480068046E44B1D3
:104EE0002046FEF779FD0090B0F90A506846FEF7BB
:104EF000B1FD00F05DFF284638BD0000BC02002077
:104F000070B505460024284611F0FCFE641C18B15B
:104F1000BDE8704000F07AB8052CF4DB70BD0000ED
:104F200038B50C46050004D10A480068056E002D0E
:104F30000FD0FFF7C3FD2846FEF74EFD0090B0F9F5
:104F40000A10A14200DD44816846FEF783FD00F0AF
:104F50002FFF38BDBC020020F8B50546FFF7AEFDB7
:104F6000104E3068046ECDB10CB100F091FB10F022
:104F7000FDF82846FEF730FD009031680D660068A8
:104F8000FEF7E0FE6846FEF765FD05F0F9FD05F069
:104F9000EFFA00BF00F00CFF2046F8BD00F078FBF0
:104FA000F8E70000BC0200207CB515460E46040060
:104FB00004D115480068046E002C24D0FFF77EFD54
:104FC0002046FEF709FD2DB20090C58034B28480E2
:104FD00005F0CEFA0098406980B1FEF7FDFC009A1A
:104FE0000190B2F908108180B2F90A20C28011B193
:104FF0000AB10480458001A8FEF72CFD6846FEF743
:1050000029FD00F0D5FE7CBDBC02002001490A4606
:1050100000F002B801F0FFFF7FB515460C46060010
:105020002DD0FFF74BFD3046FEF7D6FC40F6FF7162
:105030000190CC4203D1B0F90440B0F90650028986
:10504000611E1144ADF80840ADF80C104189681E8E
:105050000844ADF80E00ADF80A5001A8FEF7FAFCBE
:1050600002A810F0F9FD06E02A462146304600F07D
:1050700049F910F0B3FD0028F6D100F099FE7FBD8C
:105080002DE9FF4FDFF8E8B083B01C46DBF80010D5
:10509000DDE9106092464FF000084B7C42461299C1
:1050A000FEF712FE050060D028698068804706F090
:1050B00023F881460AFB09F1C91DCF08FEF79AFCC7
:1050C000F10705D1C11700EB9170801000EB400093
:1050D000002C09DC1FB11838B0FBF7F000E000200D
:1050E0006442A04200DC0446F00707D10090DDE9ED
:1050F00003012346524600F0C9FD8046002C03DC24
:105100002846FEF71DFE30E004FB07F01830F107DB
:1051100002D0FEF789FB01E0FEF795FB06001CD0EC
:10512000FEF75AFC01900560039981800499C180C3
:10513000A0F808A04481C0F81480C0E9037901A850
:10514000FEF788FC1298AE602861DBF80000407C16
:10515000A861304607B0BDE8F08F2846FEF7F0FDA5
:105160005FEA080001D0FEF78DFB0020F2E70000A7
:10517000BC0200202DE9F74F8EB0144689460E98E8
:10518000FEF72AFC0990B0F908B0B0F90A6000688F
:10519000006940680C9009A8FEF75CFC564D574F1B
:1051A0002868407C57F82000C1688A6A0821904727
:1051B0000790182801D3202007902868407C57F8D2
:1051C00020000069069003C80B904D48814201D031
:1051D000012000E000200A90002000F06FFE00286F
:1051E0007DD1286809EB0B01B0F90C20891A491E02
:1051F000002902DDABEB010500E05D46B0F90810C7
:10520000494505DDA1EB090189446D1A089101E0CA
:1052100000210891002D6BDDB0F90E20A119891A2B
:10522000491E002902DDA6EB010800E0B046B0F9F6
:105230000A00A04204DD061B3444A8EB060800E087
:105240000026B8F1000F53DD089801900DA95F46C4
:10525000DDF830A00E980091FFF723FE774300EBB6
:10526000870101982B4601EB800200994846CDE961
:1052700000A1214601F0B6F80090002838D00A9825
:10528000E8B1DDE906322946009800F0C7FEB0B962
:105290000698009FDA46D0F810C0BCF1000F05D088
:1052A00004235A4639463846E04708E00B993868E7
:1052B000884701C7AAF101005FEA000AF6D1009908
:1052C0000020079ACDE90301059001200090CDE967
:1052D000010221460346641C2A46484600E007E0D6
:1052E00004F0CEF8A8F10100761C5FEA0008ABD10B
:1052F00011B0BDE8F08F0000BC020020D4020020F5
:10530000AF9D0008F8B515460E460746FEF764FB4C
:10531000009000681621C068426A00209047044649
:105320006846FEF797FB002C03D02A4631463846E4
:10533000A047F8BDF8B516460F46050012D0FEF797
:105340004BFB009044696846FEF784FB2846FFF754
:105350008FFD0346082800DD2CB132463946284629
:1053600019F0DAFEF8BD3246394628461AF074F8CC
:10537000F8BD000002480068407C00F003B800005F
:10538000BC020020F8B51D49096809B1002200E0FF
:1053900002461B498D56012D2EDD1849143151F856
:1053A00022305B1C41F82230012B25D1A1F10803EA
:1053B0000026103953F8224051F8221053F8227079
:1053C0007F1C43F82270AF4201D143F8226053F8AA
:1053D00022708F42F2D03D46FEF738FD0090002843
:1053E0000AD0C0682121426A68469047030003D072
:1053F0002A46214600989847F8BD00000C0300207B
:10540000F4020020044A126802B10020002900DCE6
:105410000121024A115470470C030020F4020020BD
:10542000094A126802B10020074A1C3252F82030A3
:10543000002B07DBA2F1180343F820104FF0FF31D7
:1054400042F82010704700000C030020024800685A
:10545000407C00F003B80000BC02002038B51449BD
:10546000096809B1002200E0024612498956012963
:105470001CDD0F49143151F822305B1E41F82230F7
:1054800014D1083951F82240103141F82240FEF77A
:10549000DDFC0090002809D0C0682221426A6846DD
:1054A0009047020002D021460098904738BD000086
:1054B0000C030020F402002010B5002821D009B30D
:1054C0000AB3B1F90040B2F900309C4200DA234639
:1054D0000380B1F90240B2F902309C4200DA23465F
:1054E0004380B1F90440B2F904309C4200DD234608
:1054F0008380B1F90610B2F90620914200DC114612
:10550000C18010BD11460A6802604968416010BD43
:1055100000280BD003880B440380838819448180C2
:10552000418811444180C1881144C1807047000006
:1055300070B50025FFF7C2FA094CD4E90020824279
:105540000AD0D2E90056104617F01EFC2060314602
:10555000284610F01BF9012500F02AFC284670BDF2
:10556000AC0C00202DE9FC41154DDDE908742D68D7
:10557000B5F90860864200DD3046B5F90C60964208
:1055800000DA3246824219DBB5F90A608E4200DD4C
:105590003146B5F90E509D4200DA2B468B420DDBA9
:1055A00000E02C46E5682D6825B1042D02D0256861
:1055B000002DF6D1CDE9007404F0BCFDBDE8FC81FE
:1055C000BC020020B0F90220B1F906309A4213DC87
:1055D000B1F90220B0F906309A420DDCB0F9002092
:1055E000B1F904309A4207DCB1F90010B0F90400B7
:1055F000814201DC012070470020704701460248CB
:1056000070220068FBF728B8BC020020DFED1A0A00
:105610002DE9F04120EE200ADFED180A06469046FB
:1056200080EE201A0D46BDEEC10A10EE107A384603
:1056300000F0CAFD0446384601F0FCFA014600229B
:1056400015E000BF05EB820335F92200B3F9023003
:1056500000FB04F703FB0177634300FB11303F14A9
:1056600026F82270001406EB8203521C5880424533
:10567000E8DBBDE8F081000000C82F48DA0F4940A0
:10568000024970220968FAF7E7BF0000BC02002057
:1056900010B5FFF713FA04F021FF05F071FA0FF0CF
:1056A00071FCBDE8104000F083BB000070B50B4DED
:1056B00004462868467CFFF701FA022C09D22046EE
:1056C000FEF7C4FB28B128684474FFF7E1FF0448E3
:1056D000046000F06DFB304670BD0000BC0200208D
:1056E000400C002010B50446FFF7E8F9204604F00E
:1056F00015FFBDE8104000F05BBB10B50446FFF796
:10570000DDF9204604F042FFBDE8104000F050BB38
:105710000149886070470000B002002010B50446BF
:10572000FFF7CCF9204604F0E3FF044600F040FB0D
:10573000204610BD70B50446FFF7C0F90448006864
:10574000C56904B1C46100F033FB284670BD000098
:10575000BC0200200149C86170470000800200209F
:105760000149486070470000B0020020014908600C
:105770007047000080020020014948607047000027
:105780008002002070B50546FFF798F903480068CD
:10579000847E857600F00CFB204670BDBC020020A4
:1057A00070B50C460546FFF789F909482246058081
:1057B0000848048008480068417C084850F82100E7
:1057C000C1680B6A29469847BDE8704000F0F0BAFE
:1057D000FC020020FE020020BC020020D4020020B7
:1057E00002490968497C00F003B80000BC020020AF
:1057F00070B505460C46084604F0ACF9082801DAF5
:10580000074A07E001D1074A04E0102801DC064AF4
:1058100000E0064A21462846BDE8704000F008B87E
:105820004CB002086CB002088CB00208ACB00208A0
:105830002DE9F05F0F460646914600213846FEF7F7
:10584000F3FA04007CD03F49E06888420DD1A56896
:10585000686808B1FEF734F82846FEF731F82046AC
:10586000FEF7BDFA2046FEF76BFA002E68D03846E8
:1058700004F024FA8346384604F02CFA824638466F
:1058800004F00BFA0546384604F00DFA8046384617
:10589000FEF7DCFA002853D001693B460122294873
:1058A000FEF712FA07004BD0FEF74CFA2C20FEF759
:1058B00013F8B86088B1C0E905BA0446C0F828906A
:1058C0000661C4E907584FF0FF30082E1BD2DFE80D
:1058D00006F01A0B0D121517282A3846FEF77FFA24
:1058E0003846FEF72DFA2BE0174905E017482060EF
:1058F0000120606207E016492160FAE7154800E0E0
:10590000154865622060D9F81C0038B16843E06032
:1059100000FB08F0FDF7E0FF606040B10020BDE84B
:10592000F09F0E4800E00E4820606842E1E73846EC
:10593000FEF755FA3846FEF703FA2046FDF7C0FF9A
:105940000120ECE7588D0208D7D20108FDD20108EA
:10595000E7D2010899D20108A1D20108C7D20108F3
:10596000B1D2010870B50546FFF7A8F803480068F2
:10597000047E057600F01CFA204670BDBC020020B3
:1059800070B50446FFF79AF804480068B0F92C5047
:10599000848500F00DFA284670BD0000BC0200208E
:1059A00070B50446FFF78AF804480068B0F92A5039
:1059B000448500F0FDF9284670BD0000BC020020BF
:1059C00002480068002800D000477047BC0C002047
:1059D00002498A6802B98860FFF7F2BFAC0C002068
:1059E00010B504000ED0FFF769F8204618F0ECFE61
:1059F000204619F049FB2046FDF744FFBDE8104062
:105A000000F0D6B910BD38B50C46050011D0FFF72F
:105A100055F82846FDF7E0FF00908089204201D02C
:105A2000012400E000246846FEF714F800F0C0F9F5
:105A300000E00124204638BD38B505460020286026
:105A40000648046844B12046FDF7C6FF009000698F
:105A500028606846FDF7FEFF204638BDDC0C0020BC
:105A600038B504004FF000000D46086011D0204604
:105A7000FDF7B2FF0090846844B16846FDF7EAFF85
:105A80002046FDF7A9FF0090006928606846FDF7F1
:105A9000E1FF204638BD00002DE9F84FDFF898807F
:105AA0000546264F98F818008B46410738680A9E2D
:105AB0009946407C924607D404F000F904463868C1
:105AC000407C04F007F906E004F004F90446386865
:105AD000407C04F0F3F8002785B1441EB9EB0600C2
